{
  "abi": [
    {
      "inputs": [
        {
          "internalType": "address",
          "name": "stakingToken",
          "type": "address"
        },
        {
          "internalType": "address",
          "name": "rewardsToken",
          "type": "address"
        }
      ],
      "stateMutability": "nonpayable",
      "type": "constructor"
    },
    {
      "inputs": [],
      "name": "Staking_AmountNotEnough",
      "type": "error"
    },
    {
      "inputs": [],
      "name": "Staking__TransferFailed",
      "type": "error"
    },
    {
      "anonymous": false,
      "inputs": [
        {
          "indexed": false,
          "internalType": "address",
          "name": "",
          "type": "address"
        },
        {
          "indexed": false,
          "internalType": "uint256",
          "name": "",
          "type": "uint256"
        }
      ],
      "name": "StakeSuccess",
      "type": "event"
    },
    {
      "anonymous": false,
      "inputs": [
        {
          "indexed": false,
          "internalType": "address",
          "name": "",
          "type": "address"
        },
        {
          "indexed": false,
          "internalType": "uint256",
          "name": "",
          "type": "uint256"
        }
      ],
      "name": "WithdrawSuccess",
      "type": "event"
    },
    {
      "inputs": [],
      "name": "REWARD_RATE",
      "outputs": [
        {
          "internalType": "uint256",
          "name": "",
          "type": "uint256"
        }
      ],
      "stateMutability": "view",
      "type": "function"
    },
    {
      "inputs": [],
      "name": "claimReward",
      "outputs": [],
      "stateMutability": "nonpayable",
      "type": "function"
    },
    {
      "inputs": [
        {
          "internalType": "address",
          "name": "account",
          "type": "address"
        }
      ],
      "name": "earned",
      "outputs": [
        {
          "internalType": "uint256",
          "name": "",
          "type": "uint256"
        }
      ],
      "stateMutability": "view",
      "type": "function"
    },
    {
      "inputs": [],
      "name": "rewardPerToken",
      "outputs": [
        {
          "internalType": "uint256",
          "name": "",
          "type": "uint256"
        }
      ],
      "stateMutability": "view",
      "type": "function"
    },
    {
      "inputs": [],
      "name": "s_rewardsToken",
      "outputs": [
        {
          "internalType": "contract IERC20",
          "name": "",
          "type": "address"
        }
      ],
      "stateMutability": "view",
      "type": "function"
    },
    {
      "inputs": [],
      "name": "s_stakingToken",
      "outputs": [
        {
          "internalType": "contract IERC20",
          "name": "",
          "type": "address"
        }
      ],
      "stateMutability": "view",
      "type": "function"
    },
    {
      "inputs": [
        {
          "internalType": "uint256",
          "name": "amount",
          "type": "uint256"
        }
      ],
      "name": "stake",
      "outputs": [],
      "stateMutability": "nonpayable",
      "type": "function"
    },
    {
      "inputs": [
        {
          "internalType": "uint256",
          "name": "amount",
          "type": "uint256"
        }
      ],
      "name": "withdraw",
      "outputs": [],
      "stateMutability": "nonpayable",
      "type": "function"
    }
  ],
  "bytecode": {
    "object": "0x608060405234801561001057600080fd5b506040516107cd3803806107cd83398101604081905261002f9161007c565b600080546001600160a01b039384166001600160a01b031991821617909155600180549290931691161790556100af565b80516001600160a01b038116811461007757600080fd5b919050565b6000806040838503121561008f57600080fd5b61009883610060565b91506100a660208401610060565b90509250929050565b61070f806100be6000396000f3fe608060405234801561001057600080fd5b50600436106100875760003560e01c8063a694fc3a1161005b578063a694fc3a146100fa578063adca9b721461010d578063b88a802f14610120578063cd3daf9d1461012857600080fd5b80628cc2621461008c5780630bd21c56146100b25780632e1a7d4d146100dd5780635997bb37146100f2575b600080fd5b61009f61009a3660046105eb565b610130565b6040519081526020015b60405180910390f35b6001546100c5906001600160a01b031681565b6040516001600160a01b0390911681526020016100a9565b6100f06100eb36600461061b565b6101b5565b005b61009f606481565b6100f061010836600461061b565b610330565b6000546100c5906001600160a01b031681565b6100f06104a7565b61009f61058d565b6001600160a01b03811660009081526002602090815260408083205460039092528220548261015d61058d565b6001600160a01b038616600090815260046020526040812054919250670de0b6b3a764000061018c858561064a565b6101969087610663565b6101a09190610682565b6101aa90836106a4565b979650505050505050565b336101be61058d565b600655426007556101ce81610130565b6001600160a01b038216600090815260046020908152604080832093909355600654600390915291812091909155829081900361021e57604051630f9dd83760e41b815260040160405180910390fd5b3360009081526002602052604090205461023990849061064a565b3360009081526002602052604090205560055461025790849061064a565b6005556000805460405163a9059cbb60e01b8152336004820152602481018690526001600160a01b039091169063a9059cbb906044016020604051808303816000875af11580156102ac573d6000803e3d6000fd5b505050506040513d601f19601f820116820180604052508101906102d091906106b7565b9050806102f05760405163eb4c684760e01b815260040160405180910390fd5b60408051338152602081018690527f95e1b0070dbccc052f124fa5143644dca4cc74c53bf1d0fe68ff7295f61cdc0c91015b60405180910390a150505050565b3361033961058d565b6006554260075561034981610130565b6001600160a01b038216600090815260046020908152604080832093909355600654600390915291812091909155829081900361039957604051630f9dd83760e41b815260040160405180910390fd5b336000908152600260205260409020546103b49084906106a4565b336000908152600260205260409020556005546103d29084906106a4565b600555600080546040516323b872dd60e01b8152336004820152306024820152604481018690526001600160a01b03909116906323b872dd906064016020604051808303816000875af115801561042d573d6000803e3d6000fd5b505050506040513d601f19601f8201168201806040525081019061045191906106b7565b9050806104715760405163eb4c684760e01b815260040160405180910390fd5b60408051338152602081018690527f2c465e70bcf9e8aebaaf19af663ec412551be6a6be1c8ee4446aca3a8de716ba9101610322565b336104b061058d565b600655426007556104c081610130565b6001600160a01b038281166000908152600460208181526040808420959095556006546003825285842055338084529082905284832054600154955163a9059cbb60e01b81529283019190915260248201819052939192919091169063a9059cbb906044016020604051808303816000875af1158015610544573d6000803e3d6000fd5b505050506040513d601f19601f8201168201806040525081019061056891906106b7565b9050806105885760405163eb4c684760e01b815260040160405180910390fd5b505050565b60006005546000036105a0575060065490565b6005546064600754426105b3919061064a565b6105bd9190610663565b6105cf90670de0b6b3a7640000610663565b6105d99190610682565b6006546105e691906106a4565b905090565b6000602082840312156105fd57600080fd5b81356001600160a01b038116811461061457600080fd5b9392505050565b60006020828403121561062d57600080fd5b5035919050565b634e487b7160e01b600052601160045260246000fd5b8181038181111561065d5761065d610634565b92915050565b600081600019048311821515161561067d5761067d610634565b500290565b60008261069f57634e487b7160e01b600052601260045260246000fd5b500490565b8082018082111561065d5761065d610634565b6000602082840312156106c957600080fd5b8151801515811461061457600080fdfea2646970667358221220500d69b640eed0af8f2b3cc261d3dde2f6ffb871683dfdeafa20a1d87018949364736f6c63430008100033",
    "linkReferences": {}
  },
  "methodIdentifiers": {
    "REWARD_RATE()": "5997bb37",
    "claimReward()": "b88a802f",
    "earned(address)": "008cc262",
    "rewardPerToken()": "cd3daf9d",
    "s_rewardsToken()": "0bd21c56",
    "s_stakingToken()": "adca9b72",
    "stake(uint256)": "a694fc3a",
    "withdraw(uint256)": "2e1a7d4d"
  },
  "id": 9
}